{
  "_format": "hh-sol-artifact-1",
  "contractName": "DepositsVault",
  "sourceName": "contracts/DepositsVault.sol",
  "abi": [
    {
      "inputs": [
        {
          "internalType": "address",
          "name": "_tokenAddress",
          "type": "address"
        },
        {
          "internalType": "address",
          "name": "_NFTMarketplace",
          "type": "address"
        }
      ],
      "stateMutability": "nonpayable",
      "type": "constructor"
    },
    {
      "anonymous": false,
      "inputs": [
        {
          "indexed": false,
          "internalType": "address",
          "name": "_sender",
          "type": "address"
        },
        {
          "indexed": false,
          "internalType": "uint256",
          "name": "_amountAdded",
          "type": "uint256"
        }
      ],
      "name": "AddFundsEvent",
      "type": "event"
    },
    {
      "anonymous": false,
      "inputs": [
        {
          "indexed": false,
          "internalType": "address",
          "name": "_sender",
          "type": "address"
        },
        {
          "indexed": false,
          "internalType": "address",
          "name": "_receiver",
          "type": "address"
        },
        {
          "indexed": false,
          "internalType": "uint256",
          "name": "_amountReceived",
          "type": "uint256"
        }
      ],
      "name": "TransferFunds",
      "type": "event"
    },
    {
      "inputs": [],
      "name": "NFTMarketplace",
      "outputs": [
        {
          "internalType": "address",
          "name": "",
          "type": "address"
        }
      ],
      "stateMutability": "view",
      "type": "function"
    },
    {
      "inputs": [
        {
          "internalType": "uint256",
          "name": "_amount",
          "type": "uint256"
        }
      ],
      "name": "addFunds",
      "outputs": [],
      "stateMutability": "nonpayable",
      "type": "function"
    },
    {
      "inputs": [
        {
          "internalType": "address",
          "name": "",
          "type": "address"
        }
      ],
      "name": "fundsBalance",
      "outputs": [
        {
          "internalType": "uint256",
          "name": "",
          "type": "uint256"
        }
      ],
      "stateMutability": "view",
      "type": "function"
    },
    {
      "inputs": [],
      "name": "name",
      "outputs": [
        {
          "internalType": "string",
          "name": "",
          "type": "string"
        }
      ],
      "stateMutability": "view",
      "type": "function"
    },
    {
      "inputs": [],
      "name": "nftMarketplace",
      "outputs": [
        {
          "internalType": "address",
          "name": "",
          "type": "address"
        }
      ],
      "stateMutability": "view",
      "type": "function"
    },
    {
      "inputs": [],
      "name": "owner",
      "outputs": [
        {
          "internalType": "address",
          "name": "",
          "type": "address"
        }
      ],
      "stateMutability": "view",
      "type": "function"
    },
    {
      "inputs": [],
      "name": "tokenAddress",
      "outputs": [
        {
          "internalType": "address",
          "name": "",
          "type": "address"
        }
      ],
      "stateMutability": "view",
      "type": "function"
    },
    {
      "inputs": [
        {
          "internalType": "address",
          "name": "_sender",
          "type": "address"
        },
        {
          "internalType": "address",
          "name": "_receiver",
          "type": "address"
        },
        {
          "internalType": "uint256",
          "name": "_amount",
          "type": "uint256"
        }
      ],
      "name": "transferFunds",
      "outputs": [],
      "stateMutability": "nonpayable",
      "type": "function"
    }
  ],
  "bytecode": "0x60806040526040518060400160405280601681526020017f42657374626964206465706f73697473207661756c74000000000000000000008152506000908051906020019062000051929190620002bf565b503480156200005f57600080fd5b50604051620015f5380380620015f5833981810160405281019062000085919062000386565b620000b97f1f999fb163db3b76f24955b10b49d8ed755045c1543b9365c7fedaea23acff6b60001b620002bc60201b60201c565b620000ed7f9cc6931dad680e7f4727094f57c1c05c91a3203fd1a43c266193ea990cb5133860001b620002bc60201b60201c565b620001217fbd29f0c210d6f365d386b9bb2961e2f4e78b9ef6c144ff475a71aeca3f3dd56860001b620002bc60201b60201c565b81600260006101000a81548173ffffffffffffffffffffffffffffffffffffffff021916908373ffffffffffffffffffffffffffffffffffffffff160217905550620001967fb13622e41517ee3b07ec92bcc6ccaa73ebbcc3e33aa8652eb078af2d6bcbcda660001b620002bc60201b60201c565b620001ca7fc75498135c38e82cdb4f23668b9b4a2cb03e7351ee3c8559be9f64e4e494c74e60001b620002bc60201b60201c565b80600360006101000a81548173ffffffffffffffffffffffffffffffffffffffff021916908373ffffffffffffffffffffffffffffffffffffffff1602179055506200023f7fb7f6186c741f07f22c3e39ade6d884f6fb0fbcfd51f34f44a4041826fcd16daf60001b620002bc60201b60201c565b620002737f53227d197d9ea07ab92c9f89e819aa63aa751df7520434ee7046cac8155f1b5d60001b620002bc60201b60201c565b33600160006101000a81548173ffffffffffffffffffffffffffffffffffffffff021916908373ffffffffffffffffffffffffffffffffffffffff16021790555050506200047a565b50565b828054620002cd90620003fb565b90600052602060002090601f016020900481019282620002f157600085556200033d565b82601f106200030c57805160ff19168380011785556200033d565b828001600101855582156200033d579182015b828111156200033c5782518255916020019190600101906200031f565b5b5090506200034c919062000350565b5090565b5b808211156200036b57600081600090555060010162000351565b5090565b600081519050620003808162000460565b92915050565b600080604083850312156200039a57600080fd5b6000620003aa858286016200036f565b9250506020620003bd858286016200036f565b9150509250929050565b6000620003d482620003db565b9050919050565b600073ffffffffffffffffffffffffffffffffffffffff82169050919050565b600060028204905060018216806200041457607f821691505b602082108114156200042b576200042a62000431565b5b50919050565b7f4e487b7100000000000000000000000000000000000000000000000000000000600052602260045260246000fd5b6200046b81620003c7565b81146200047757600080fd5b50565b61116b806200048a6000396000f3fe608060405234801561001057600080fd5b50600436106100885760003560e01c80639d76ea581161005b5780639d76ea5814610103578063b7595c1314610121578063be9997051461013f578063c86271f81461015b57610088565b806306fdde031461008d5780631501bf03146100ab57806351ef182d146100c75780638da5cb5b146100e5575b600080fd5b61009561018b565b6040516100a29190610e39565b60405180910390f35b6100c560048036038101906100c09190610c80565b610219565b005b6100cf61073b565b6040516100dc9190610dbe565b60405180910390f35b6100ed6107e9565b6040516100fa9190610dbe565b60405180910390f35b61010b61080f565b6040516101189190610dbe565b60405180910390f35b610129610835565b6040516101369190610dbe565b60405180910390f35b61015960048036038101906101549190610cf8565b61085b565b005b61017560048036038101906101709190610c57565b610bfd565b6040516101829190610e9b565b60405180910390f35b6000805461019890610fd7565b80601f01602080910402602001604051908101604052809291908181526020018280546101c490610fd7565b80156102115780601f106101e657610100808354040283529160200191610211565b820191906000526020600020905b8154815290600101906020018083116101f457829003601f168201915b505050505081565b6102457fbaa75fe06c4afb7dd702a0b3b83517e6f470123720092d46aba48ba99cbe0ebf60001b610c15565b6102717fc791eba8e551c9c4ec12f8d8d288c99a7c84e0b743796b8182fe7ed48a27b20960001b610c15565b61029d7f51c23a9c198f0705b5e8940122042e5ccb70ca7100b13b5156f1f2bbda092a8360001b610c15565b6102c97f67de231e572a8db7dd39fb83fe2a08bedcc1e7425f729890cb1294e7d49852cd60001b610c15565b3373ffffffffffffffffffffffffffffffffffffffff166102e861073b565b73ffffffffffffffffffffffffffffffffffffffff161461033e576040517f08c379a000000000000000000000000000000000000000000000000000000000815260040161033590610e7b565b60405180910390fd5b61036a7fecca8e8beffb7b0f5217fe03f023c64d5f6c8fa95c2016e0189564c5a58db22860001b610c15565b6103967f185af0370c13e334c350eeef0093577edd6b634ab89866a989423025dfe9866960001b610c15565b6103c27fcf5f0354b26eb42d5dbc1d8b65e4654b42095a25a25f3449068aa08cba8a1e9060001b610c15565b6103ee7f528b3c5b883f70c56112de6d257233b0b4d9811ffd87a2cb489ded5206760a0060001b610c15565b61041a7fe87e22399a84197d814967bae42efc04ee8aebe0ed8795e0e94cdceee3cb5dc060001b610c15565b6104467f351ca238e7ca1659f0a14241e3b3930658c4c9d4512e07bd57e2c0f47c6f006a60001b610c15565b60008111610489576040517f08c379a000000000000000000000000000000000000000000000000000000000815260040161048090610e5b565b60405180910390fd5b6104b57f6015727613b8839ffdb3ebfe86fee2f38dafbdb93775bc62c4c6be0db5aae99560001b610c15565b6104e17f1ef64b113bc3551614245fafd40c927e257d3a754cfec05de635827ed2e4ae0060001b610c15565b61050d7f58e2af50679f5f92c79b51193e88611a5c6c40c8f35d34dafd3767db9c29445160001b610c15565b600260009054906101000a900473ffffffffffffffffffffffffffffffffffffffff1673ffffffffffffffffffffffffffffffffffffffff1663a9059cbb83836040518363ffffffff1660e01b815260040161056a929190610e10565b602060405180830381600087803b15801561058457600080fd5b505af1158015610598573d6000803e3d6000fd5b505050506040513d601f19601f820116820180604052508101906105bc9190610ccf565b506105e97fe641943cafefaf765e3e59e0be10e01be0ab3afa0dea0b0371cd71495f87ee5a60001b610c15565b6106157fc1631224bc0631e5bb0bb5c8d294d5bc988604e17b7f4b6f8814b9ab5721a4b260001b610c15565b80600460008573ffffffffffffffffffffffffffffffffffffffff1673ffffffffffffffffffffffffffffffffffffffff168152602001908152602001600020546106609190610f28565b600460008573ffffffffffffffffffffffffffffffffffffffff1673ffffffffffffffffffffffffffffffffffffffff168152602001908152602001600020819055506106cf7f653b396862d7194e32402a22307fb3aee6b0f7ed208c02a34b7047801733eb5760001b610c15565b6106fb7f86f04a2c50394d7ab89a074cd70c8b43c22b5641a43fbf1a050976ebcb35d0a360001b610c15565b7f5a0155838afb0f859197785e575b9ad1afeb456c6e522b6f632ee8465941315e83838360405161072e93929190610dd9565b60405180910390a1505050565b60006107697f8016d4e3f568fa2bdd238730241a22c510dc159db720f77abc1bf4a4d543a7e460001b610c15565b6107957fcc4a1270a5c6ca26746220cac6a3fd208ce9ecf0617e27157f9269685ea93a9e60001b610c15565b6107c17f203f59758ae49601c4f1cd7310142d94ba261d847d54ac8a828605640160d1f160001b610c15565b600360009054906101000a900473ffffffffffffffffffffffffffffffffffffffff16905090565b600160009054906101000a900473ffffffffffffffffffffffffffffffffffffffff1681565b600260009054906101000a900473ffffffffffffffffffffffffffffffffffffffff1681565b600360009054906101000a900473ffffffffffffffffffffffffffffffffffffffff1681565b6108877f1f7588bedc56dac7592705917f17f30cc224175efa9bdf03fc8533817cc0458c60001b610c15565b6108b37fe0cb89215db14f57b29943e7491c31eb64a8883c72a4b9c33198518597d3938660001b610c15565b6108df7f3f163f3a4d50c8692ef8601193563a455ea6129ec75ac154f5a37929f5d9577160001b610c15565b61090b7f632b47359231395d55e6b42c1ce1fd83b38ec2dab36cd3a7318d3bc437c8b1f860001b610c15565b6000811161094e576040517f08c379a000000000000000000000000000000000000000000000000000000000815260040161094590610e5b565b60405180910390fd5b61097a7f657de7152d21d11a095802c8b8069151194aebdab9319c6c554eb509b55a7cfb60001b610c15565b6109a67fa21ba4510573dffadc44efbd4c9cd217604403f24cb961cbe74b1719e7bb606c60001b610c15565b6109d27f6e8c9f4d46183f8e8cd685bc0b9f37ff8fc0a454134d6acdb328730fcfbcc19460001b610c15565b600260009054906101000a900473ffffffffffffffffffffffffffffffffffffffff1673ffffffffffffffffffffffffffffffffffffffff166323b872dd3330846040518463ffffffff1660e01b8152600401610a3193929190610dd9565b602060405180830381600087803b158015610a4b57600080fd5b505af1158015610a5f573d6000803e3d6000fd5b505050506040513d601f19601f82011682018060405250810190610a839190610ccf565b50610ab07f5e6ea10f863a5b49c629a2248d0cd8c137b8af63f4c8abd7a967a4a22fff8dc960001b610c15565b610adb7e98f3fa2dc0843754de95e57c28a89c8d34ca296722a330846c5cd9dcfe9c1660001b610c15565b80600460003373ffffffffffffffffffffffffffffffffffffffff1673ffffffffffffffffffffffffffffffffffffffff16815260200190815260200160002054610b269190610ed2565b600460003373ffffffffffffffffffffffffffffffffffffffff1673ffffffffffffffffffffffffffffffffffffffff16815260200190815260200160002081905550610b957f8e80b07e1705b5c31734608b4b74ce544d658ccb13ddc2a7bcda9f1f82096cc760001b610c15565b610bc17fec3441149b560c6c146269a6ffae254832a702e06a44699fd34184da98a3508260001b610c15565b7fa59226995b40ebc5cb45df5cfcbcb9299db10320c99963a28dec2d70ef581b913382604051610bf2929190610e10565b60405180910390a150565b60046020528060005260406000206000915090505481565b50565b600081359050610c27816110f0565b92915050565b600081519050610c3c81611107565b92915050565b600081359050610c518161111e565b92915050565b600060208284031215610c6957600080fd5b6000610c7784828501610c18565b91505092915050565b600080600060608486031215610c9557600080fd5b6000610ca386828701610c18565b9350506020610cb486828701610c18565b9250506040610cc586828701610c42565b9150509250925092565b600060208284031215610ce157600080fd5b6000610cef84828501610c2d565b91505092915050565b600060208284031215610d0a57600080fd5b6000610d1884828501610c42565b91505092915050565b610d2a81610f5c565b82525050565b6000610d3b82610eb6565b610d458185610ec1565b9350610d55818560208601610fa4565b610d5e81611067565b840191505092915050565b6000610d76601283610ec1565b9150610d8182611078565b602082019050919050565b6000610d99603083610ec1565b9150610da4826110a1565b604082019050919050565b610db881610f9a565b82525050565b6000602082019050610dd36000830184610d21565b92915050565b6000606082019050610dee6000830186610d21565b610dfb6020830185610d21565b610e086040830184610daf565b949350505050565b6000604082019050610e256000830185610d21565b610e326020830184610daf565b9392505050565b60006020820190508181036000830152610e538184610d30565b905092915050565b60006020820190508181036000830152610e7481610d69565b9050919050565b60006020820190508181036000830152610e9481610d8c565b9050919050565b6000602082019050610eb06000830184610daf565b92915050565b600081519050919050565b600082825260208201905092915050565b6000610edd82610f9a565b9150610ee883610f9a565b9250827fffffffffffffffffffffffffffffffffffffffffffffffffffffffffffffffff03821115610f1d57610f1c611009565b5b828201905092915050565b6000610f3382610f9a565b9150610f3e83610f9a565b925082821015610f5157610f50611009565b5b828203905092915050565b6000610f6782610f7a565b9050919050565b60008115159050919050565b600073ffffffffffffffffffffffffffffffffffffffff82169050919050565b6000819050919050565b60005b83811015610fc2578082015181840152602081019050610fa7565b83811115610fd1576000848401525b50505050565b60006002820490506001821680610fef57607f821691505b6020821081141561100357611002611038565b5b50919050565b7f4e487b7100000000000000000000000000000000000000000000000000000000600052601160045260246000fd5b7f4e487b7100000000000000000000000000000000000000000000000000000000600052602260045260246000fd5b6000601f19601f8301169050919050565b7f416d6f756e742063616e6e6f7420626520300000000000000000000000000000600082015250565b7f4465706f736974735661756c743a2063616c6c6572206973206e6f742074686560008201527f204e4654204d61726b6574706c61636500000000000000000000000000000000602082015250565b6110f981610f5c565b811461110457600080fd5b50565b61111081610f6e565b811461111b57600080fd5b50565b61112781610f9a565b811461113257600080fd5b5056fea264697066735822122087fd5bfa128273ffeb6318371bfeefc54c7f00cecc387aa85e11d46179ff327764736f6c63430008040033",
  "linkReferences": {},
  "deployedLinkReferences": {}
}