{
  "_format": "hh-sol-artifact-1",
  "contractName": "NFTMarketplace",
  "sourceName": "contracts/NFTMarketplace.sol",
  "abi": [
    {
      "inputs": [],
      "stateMutability": "nonpayable",
      "type": "constructor"
    },
    {
      "anonymous": false,
      "inputs": [
        {
          "indexed": true,
          "internalType": "address",
          "name": "owner",
          "type": "address"
        },
        {
          "indexed": true,
          "internalType": "address",
          "name": "approved",
          "type": "address"
        },
        {
          "indexed": true,
          "internalType": "uint256",
          "name": "tokenId",
          "type": "uint256"
        }
      ],
      "name": "Approval",
      "type": "event"
    },
    {
      "anonymous": false,
      "inputs": [
        {
          "indexed": true,
          "internalType": "address",
          "name": "owner",
          "type": "address"
        },
        {
          "indexed": true,
          "internalType": "address",
          "name": "operator",
          "type": "address"
        },
        {
          "indexed": false,
          "internalType": "bool",
          "name": "approved",
          "type": "bool"
        }
      ],
      "name": "ApprovalForAll",
      "type": "event"
    },
    {
      "anonymous": false,
      "inputs": [
        {
          "indexed": true,
          "internalType": "uint256",
          "name": "tokenId",
          "type": "uint256"
        },
        {
          "indexed": false,
          "internalType": "address",
          "name": "seller",
          "type": "address"
        },
        {
          "indexed": false,
          "internalType": "address",
          "name": "owner",
          "type": "address"
        },
        {
          "indexed": false,
          "internalType": "uint256",
          "name": "auctionEndDate",
          "type": "uint256"
        },
        {
          "indexed": false,
          "internalType": "string",
          "name": "category",
          "type": "string"
        },
        {
          "indexed": false,
          "internalType": "string",
          "name": "tokenURI",
          "type": "string"
        },
        {
          "indexed": false,
          "internalType": "uint256",
          "name": "price",
          "type": "uint256"
        },
        {
          "indexed": false,
          "internalType": "bool",
          "name": "sold",
          "type": "bool"
        }
      ],
      "name": "MarketItemCreated",
      "type": "event"
    },
    {
      "anonymous": false,
      "inputs": [
        {
          "indexed": true,
          "internalType": "address",
          "name": "previousOwner",
          "type": "address"
        },
        {
          "indexed": true,
          "internalType": "address",
          "name": "newOwner",
          "type": "address"
        }
      ],
      "name": "OwnershipTransferred",
      "type": "event"
    },
    {
      "anonymous": false,
      "inputs": [
        {
          "indexed": true,
          "internalType": "address",
          "name": "from",
          "type": "address"
        },
        {
          "indexed": true,
          "internalType": "address",
          "name": "to",
          "type": "address"
        },
        {
          "indexed": true,
          "internalType": "uint256",
          "name": "tokenId",
          "type": "uint256"
        }
      ],
      "name": "Transfer",
      "type": "event"
    },
    {
      "inputs": [
        {
          "internalType": "address",
          "name": "to",
          "type": "address"
        },
        {
          "internalType": "uint256",
          "name": "tokenId",
          "type": "uint256"
        }
      ],
      "name": "approve",
      "outputs": [],
      "stateMutability": "nonpayable",
      "type": "function"
    },
    {
      "inputs": [
        {
          "internalType": "address",
          "name": "owner",
          "type": "address"
        }
      ],
      "name": "balanceOf",
      "outputs": [
        {
          "internalType": "uint256",
          "name": "",
          "type": "uint256"
        }
      ],
      "stateMutability": "view",
      "type": "function"
    },
    {
      "inputs": [
        {
          "internalType": "uint256",
          "name": "_tokenId",
          "type": "uint256"
        },
        {
          "internalType": "uint256",
          "name": "_price",
          "type": "uint256"
        },
        {
          "internalType": "uint256",
          "name": "_auctionEndDate",
          "type": "uint256"
        },
        {
          "internalType": "string",
          "name": "_category",
          "type": "string"
        },
        {
          "internalType": "string",
          "name": "_tokenURI",
          "type": "string"
        }
      ],
      "name": "createMarketItem",
      "outputs": [],
      "stateMutability": "nonpayable",
      "type": "function"
    },
    {
      "inputs": [
        {
          "internalType": "uint256",
          "name": "_tokenId",
          "type": "uint256"
        },
        {
          "internalType": "address",
          "name": "_buyer",
          "type": "address"
        },
        {
          "internalType": "uint256",
          "name": "_amount",
          "type": "uint256"
        }
      ],
      "name": "createMarketSale",
      "outputs": [],
      "stateMutability": "nonpayable",
      "type": "function"
    },
    {
      "inputs": [
        {
          "internalType": "string",
          "name": "_tokenURI",
          "type": "string"
        },
        {
          "internalType": "uint256",
          "name": "_price",
          "type": "uint256"
        },
        {
          "internalType": "uint256",
          "name": "_auctionEndDate",
          "type": "uint256"
        },
        {
          "internalType": "string",
          "name": "_category",
          "type": "string"
        }
      ],
      "name": "createToken",
      "outputs": [
        {
          "internalType": "uint256",
          "name": "",
          "type": "uint256"
        }
      ],
      "stateMutability": "nonpayable",
      "type": "function"
    },
    {
      "inputs": [],
      "name": "depositVaultAddress",
      "outputs": [
        {
          "internalType": "address",
          "name": "",
          "type": "address"
        }
      ],
      "stateMutability": "view",
      "type": "function"
    },
    {
      "inputs": [],
      "name": "fetchAllMarketItems",
      "outputs": [
        {
          "components": [
            {
              "internalType": "uint256",
              "name": "tokenId",
              "type": "uint256"
            },
            {
              "internalType": "address",
              "name": "seller",
              "type": "address"
            },
            {
              "internalType": "address",
              "name": "owner",
              "type": "address"
            },
            {
              "internalType": "uint256",
              "name": "auctionEndDate",
              "type": "uint256"
            },
            {
              "internalType": "string",
              "name": "category",
              "type": "string"
            },
            {
              "internalType": "uint256",
              "name": "price",
              "type": "uint256"
            },
            {
              "internalType": "bool",
              "name": "sold",
              "type": "bool"
            }
          ],
          "internalType": "struct NFTMarketplace.MarketItem[]",
          "name": "",
          "type": "tuple[]"
        }
      ],
      "stateMutability": "view",
      "type": "function"
    },
    {
      "inputs": [],
      "name": "fetchItemsListed",
      "outputs": [
        {
          "components": [
            {
              "internalType": "uint256",
              "name": "tokenId",
              "type": "uint256"
            },
            {
              "internalType": "address",
              "name": "seller",
              "type": "address"
            },
            {
              "internalType": "address",
              "name": "owner",
              "type": "address"
            },
            {
              "internalType": "uint256",
              "name": "auctionEndDate",
              "type": "uint256"
            },
            {
              "internalType": "string",
              "name": "category",
              "type": "string"
            },
            {
              "internalType": "uint256",
              "name": "price",
              "type": "uint256"
            },
            {
              "internalType": "bool",
              "name": "sold",
              "type": "bool"
            }
          ],
          "internalType": "struct NFTMarketplace.MarketItem[]",
          "name": "",
          "type": "tuple[]"
        }
      ],
      "stateMutability": "view",
      "type": "function"
    },
    {
      "inputs": [],
      "name": "fetchMarketItems",
      "outputs": [
        {
          "components": [
            {
              "internalType": "uint256",
              "name": "tokenId",
              "type": "uint256"
            },
            {
              "internalType": "address",
              "name": "seller",
              "type": "address"
            },
            {
              "internalType": "address",
              "name": "owner",
              "type": "address"
            },
            {
              "internalType": "uint256",
              "name": "auctionEndDate",
              "type": "uint256"
            },
            {
              "internalType": "string",
              "name": "category",
              "type": "string"
            },
            {
              "internalType": "uint256",
              "name": "price",
              "type": "uint256"
            },
            {
              "internalType": "bool",
              "name": "sold",
              "type": "bool"
            }
          ],
          "internalType": "struct NFTMarketplace.MarketItem[]",
          "name": "",
          "type": "tuple[]"
        }
      ],
      "stateMutability": "view",
      "type": "function"
    },
    {
      "inputs": [],
      "name": "fetchMyNFTs",
      "outputs": [
        {
          "components": [
            {
              "internalType": "uint256",
              "name": "tokenId",
              "type": "uint256"
            },
            {
              "internalType": "address",
              "name": "seller",
              "type": "address"
            },
            {
              "internalType": "address",
              "name": "owner",
              "type": "address"
            },
            {
              "internalType": "uint256",
              "name": "auctionEndDate",
              "type": "uint256"
            },
            {
              "internalType": "string",
              "name": "category",
              "type": "string"
            },
            {
              "internalType": "uint256",
              "name": "price",
              "type": "uint256"
            },
            {
              "internalType": "bool",
              "name": "sold",
              "type": "bool"
            }
          ],
          "internalType": "struct NFTMarketplace.MarketItem[]",
          "name": "",
          "type": "tuple[]"
        }
      ],
      "stateMutability": "view",
      "type": "function"
    },
    {
      "inputs": [
        {
          "internalType": "uint256",
          "name": "tokenId",
          "type": "uint256"
        }
      ],
      "name": "getApproved",
      "outputs": [
        {
          "internalType": "address",
          "name": "",
          "type": "address"
        }
      ],
      "stateMutability": "view",
      "type": "function"
    },
    {
      "inputs": [
        {
          "internalType": "address",
          "name": "owner",
          "type": "address"
        },
        {
          "internalType": "address",
          "name": "operator",
          "type": "address"
        }
      ],
      "name": "isApprovedForAll",
      "outputs": [
        {
          "internalType": "bool",
          "name": "",
          "type": "bool"
        }
      ],
      "stateMutability": "view",
      "type": "function"
    },
    {
      "inputs": [],
      "name": "name",
      "outputs": [
        {
          "internalType": "string",
          "name": "",
          "type": "string"
        }
      ],
      "stateMutability": "view",
      "type": "function"
    },
    {
      "inputs": [],
      "name": "owner",
      "outputs": [
        {
          "internalType": "address",
          "name": "",
          "type": "address"
        }
      ],
      "stateMutability": "view",
      "type": "function"
    },
    {
      "inputs": [
        {
          "internalType": "uint256",
          "name": "tokenId",
          "type": "uint256"
        }
      ],
      "name": "ownerOf",
      "outputs": [
        {
          "internalType": "address",
          "name": "",
          "type": "address"
        }
      ],
      "stateMutability": "view",
      "type": "function"
    },
    {
      "inputs": [],
      "name": "renounceOwnership",
      "outputs": [],
      "stateMutability": "nonpayable",
      "type": "function"
    },
    {
      "inputs": [
        {
          "internalType": "address",
          "name": "from",
          "type": "address"
        },
        {
          "internalType": "address",
          "name": "to",
          "type": "address"
        },
        {
          "internalType": "uint256",
          "name": "tokenId",
          "type": "uint256"
        }
      ],
      "name": "safeTransferFrom",
      "outputs": [],
      "stateMutability": "nonpayable",
      "type": "function"
    },
    {
      "inputs": [
        {
          "internalType": "address",
          "name": "from",
          "type": "address"
        },
        {
          "internalType": "address",
          "name": "to",
          "type": "address"
        },
        {
          "internalType": "uint256",
          "name": "tokenId",
          "type": "uint256"
        },
        {
          "internalType": "bytes",
          "name": "_data",
          "type": "bytes"
        }
      ],
      "name": "safeTransferFrom",
      "outputs": [],
      "stateMutability": "nonpayable",
      "type": "function"
    },
    {
      "inputs": [
        {
          "internalType": "address",
          "name": "operator",
          "type": "address"
        },
        {
          "internalType": "bool",
          "name": "approved",
          "type": "bool"
        }
      ],
      "name": "setApprovalForAll",
      "outputs": [],
      "stateMutability": "nonpayable",
      "type": "function"
    },
    {
      "inputs": [
        {
          "internalType": "address",
          "name": "_depositVaultAddress",
          "type": "address"
        }
      ],
      "name": "setDepositsVault",
      "outputs": [],
      "stateMutability": "nonpayable",
      "type": "function"
    },
    {
      "inputs": [
        {
          "internalType": "bytes4",
          "name": "interfaceId",
          "type": "bytes4"
        }
      ],
      "name": "supportsInterface",
      "outputs": [
        {
          "internalType": "bool",
          "name": "",
          "type": "bool"
        }
      ],
      "stateMutability": "view",
      "type": "function"
    },
    {
      "inputs": [],
      "name": "symbol",
      "outputs": [
        {
          "internalType": "string",
          "name": "",
          "type": "string"
        }
      ],
      "stateMutability": "view",
      "type": "function"
    },
    {
      "inputs": [],
      "name": "tokenAddress",
      "outputs": [
        {
          "internalType": "address",
          "name": "",
          "type": "address"
        }
      ],
      "stateMutability": "view",
      "type": "function"
    },
    {
      "inputs": [
        {
          "internalType": "uint256",
          "name": "tokenId",
          "type": "uint256"
        }
      ],
      "name": "tokenURI",
      "outputs": [
        {
          "internalType": "string",
          "name": "",
          "type": "string"
        }
      ],
      "stateMutability": "view",
      "type": "function"
    },
    {
      "inputs": [
        {
          "internalType": "address",
          "name": "from",
          "type": "address"
        },
        {
          "internalType": "address",
          "name": "to",
          "type": "address"
        },
        {
          "internalType": "uint256",
          "name": "tokenId",
          "type": "uint256"
        }
      ],
      "name": "transferFrom",
      "outputs": [],
      "stateMutability": "nonpayable",
      "type": "function"
    },
    {
      "inputs": [
        {
          "internalType": "address",
          "name": "newOwner",
          "type": "address"
        }
      ],
      "name": "transferOwnership",
      "outputs": [],
      "stateMutability": "nonpayable",
      "type": "function"
    }
  ],
  "bytecode": "0x60806040523480156200001157600080fd5b506040518060400160405280600c81526020017f42657374426964546f6b656e00000000000000000000000000000000000000008152506040518060400160405280600381526020017f4242540000000000000000000000000000000000000000000000000000000000815250816000908051906020019062000096929190620001dd565b508060019080519060200190620000af929190620001dd565b505050620000d2620000c66200010c60201b60201c565b6200011460201b60201c565b620001067f7e7cfcb80e09729c1b1203d5ae114f8385a782c902f71db16d95e1cbfabd344960001b620001da60201b60201c565b620002f2565b600033905090565b6000600760009054906101000a900473ffffffffffffffffffffffffffffffffffffffff16905081600760006101000a81548173ffffffffffffffffffffffffffffffffffffffff021916908373ffffffffffffffffffffffffffffffffffffffff1602179055508173ffffffffffffffffffffffffffffffffffffffff168173ffffffffffffffffffffffffffffffffffffffff167f8be0079c531659141344cd1fd0a4f28419497f9722a3daafe3b4186f6b6457e060405160405180910390a35050565b50565b828054620001eb906200028d565b90600052602060002090601f0160209004810192826200020f57600085556200025b565b82601f106200022a57805160ff19168380011785556200025b565b828001600101855582156200025b579182015b828111156200025a5782518255916020019190600101906200023d565b5b5090506200026a91906200026e565b5090565b5b80821115620002895760008160009055506001016200026f565b5090565b60006002820490506001821680620002a657607f821691505b60208210811415620002bd57620002bc620002c3565b5b50919050565b7f4e487b7100000000000000000000000000000000000000000000000000000000600052602260045260246000fd5b6163b580620003026000396000f3fe608060405234801561001057600080fd5b506004361061018e5760003560e01c8063715018a6116100de578063b88d4fde11610097578063dfb6452b11610071578063dfb6452b14610471578063e985e9c51461048f578063ea33bc9f146104bf578063f2fde38b146104db5761018e565b8063b88d4fde146103f5578063be0f552a14610411578063c87b56dd146104415761018e565b8063715018a614610357578063783ad978146103615780638da5cb5b1461037f57806395d89b411461039d5780639d76ea58146103bb578063a22cb465146103d95761018e565b8063202e37401161014b57806342842e0e1161012557806342842e0e146102bd57806345f8fa80146102d95780636352211e146102f757806370a08231146103275761018e565b8063202e37401461026757806323b872dd146102855780632c5864a8146102a15761018e565b806301ffc9a71461019357806306fdde03146101c3578063081812fc146101e1578063095ea7b3146102115780630f08efe01461022d57806317fc29861461024b575b600080fd5b6101ad60048036038101906101a89190614e9e565b6104f7565b6040516101ba91906156f7565b60405180910390f35b6101cb6105d9565b6040516101d89190615712565b60405180910390f35b6101fb60048036038101906101f69190614f83565b61066b565b60405161020891906155ba565b60405180910390f35b61022b60048036038101906102269190614e62565b6106f0565b005b610235610808565b60405161024291906156d5565b60405180910390f35b61026560048036038101906102609190614cf7565b610fab565b005b61026f6110ef565b60405161027c91906156d5565b60405180910390f35b61029f600480360381019061029a9190614d5c565b611a7c565b005b6102bb60048036038101906102b69190614ffb565b611adc565b005b6102d760048036038101906102d29190614d5c565b611dc8565b005b6102e1611de8565b6040516102ee91906156d5565b60405180910390f35b610311600480360381019061030c9190614f83565b612775565b60405161031e91906155ba565b60405180910390f35b610341600480360381019061033c9190614cf7565b612827565b60405161034e9190615994565b60405180910390f35b61035f6128df565b005b610369612967565b60405161037691906155ba565b60405180910390f35b61038761298d565b60405161039491906155ba565b60405180910390f35b6103a56129b7565b6040516103b29190615712565b60405180910390f35b6103c3612a49565b6040516103d091906155ba565b60405180910390f35b6103f360048036038101906103ee9190614e26565b612a6f565b005b61040f600480360381019061040a9190614dab565b612a85565b005b61042b60048036038101906104269190614ef0565b612ae7565b6040516104389190615994565b60405180910390f35b61045b60048036038101906104569190614f83565b612d6a565b6040516104689190615712565b60405180910390f35b610479612ebc565b60405161048691906156d5565b60405180910390f35b6104a960048036038101906104a49190614d20565b6134b8565b6040516104b691906156f7565b60405180910390f35b6104d960048036038101906104d49190614fac565b61354c565b005b6104f560048036038101906104f09190614cf7565b613ba9565b005b60007f80ac58cd000000000000000000000000000000000000000000000000000000007bffffffffffffffffffffffffffffffffffffffffffffffffffffffff1916827bffffffffffffffffffffffffffffffffffffffffffffffffffffffff191614806105c257507f5b5e139f000000000000000000000000000000000000000000000000000000007bffffffffffffffffffffffffffffffffffffffffffffffffffffffff1916827bffffffffffffffffffffffffffffffffffffffffffffffffffffffff1916145b806105d257506105d182613ca1565b5b9050919050565b6060600080546105e890615c34565b80601f016020809104026020016040519081016040528092919081815260200182805461061490615c34565b80156106615780601f1061063657610100808354040283529160200191610661565b820191906000526020600020905b81548152906001019060200180831161064457829003601f168201915b5050505050905090565b600061067682613d0b565b6106b5576040517f08c379a00000000000000000000000000000000000000000000000000000000081526004016106ac906158d4565b60405180910390fd5b6004600083815260200190815260200160002060009054906101000a900473ffffffffffffffffffffffffffffffffffffffff169050919050565b60006106fb82612775565b90508073ffffffffffffffffffffffffffffffffffffffff168373ffffffffffffffffffffffffffffffffffffffff16141561076c576040517f08c379a000000000000000000000000000000000000000000000000000000000815260040161076390615934565b60405180910390fd5b8073ffffffffffffffffffffffffffffffffffffffff1661078b613d77565b73ffffffffffffffffffffffffffffffffffffffff1614806107ba57506107b9816107b4613d77565b6134b8565b5b6107f9576040517f08c379a00000000000000000000000000000000000000000000000000000000081526004016107f090615814565b60405180910390fd5b6108038383613d7f565b505050565b60606108367f40e1b8693026eb3c4ffe22c79f2ad7fdf81a5571beb86d5bc08effeb2247485f60001b613e38565b6108627ffad45735eaf18b154970fc8517325bc71594838a801812c9aab06d831c045cb260001b613e38565b61088e7fe999162297d5eccd7b74a3ace27ed4b8f37d3c251638de0360b24f04dc0efa3260001b613e38565b600061089a6008613e3b565b90506108c87f848b8b2ea86a186af8eff52257e5573ee36ade14e361b06cc244914e27f80d4660001b613e38565b6108f47f32ac911689137a68514c0928983e965586b7c2f9c4d68351e4802e544adef3e960001b613e38565b60006109006009613e3b565b61090a6008613e3b565b6109149190615b4a565b90506109427fc8fcccccfce795ac740118990d05d2123e53ce20ca1d1315894418ed46005b2660001b613e38565b61096e7fd67bf981f6cc52844ee881826b7a63c48b4a210c8daf24b71a2e64313d817dfb60001b613e38565b600061099c7f8dfcfa9c578a145173dd06fc5b40c699bdfd6182faa3973c0537d7e517fa962260001b613e38565b6109c87f84ca09dd7d17a41da2a45cff61871576b1236a6de13fc638f3a6b64b68da5ca960001b613e38565b60008267ffffffffffffffff811115610a0a577f4e487b7100000000000000000000000000000000000000000000000000000000600052604160045260246000fd5b604051908082528060200260200182016040528015610a4357816020015b610a30614ab0565b815260200190600190039081610a285790505b509050610a727f300c9899292216418b8c8cf57c688d628506b606af662a55daf0374081da060260001b613e38565b610a9e7f34a6f8d9e6f4798366955ccda0cf84e53e96881259bcc0e40161ca4f5ad8d94260001b613e38565b60005b84811015610f4857610ad57f1dddc2a470b053124c7214c16347bd196db43131f25f0af15579c3312522d74560001b613e38565b610b017f1640920241e5f84462b4a6c4466f9e182f4597a1fcaa1b8f0f1a913acf2b4bc860001b613e38565b3073ffffffffffffffffffffffffffffffffffffffff16600c6000600184610b299190615ac3565b815260200190815260200160002060020160009054906101000a900473ffffffffffffffffffffffffffffffffffffffff1673ffffffffffffffffffffffffffffffffffffffff161415610f0857610ba37fbd1b07e89eb6940d84b3dbb108390100c8e37c09e9deca91c210be40437f8c1560001b613e38565b610bcf7f6c16a969bae88d2df1b6ad4192c81cad18357a30cb56066757d8a358abdcea0160001b613e38565b610bfb7f3c53d13fa6da5062e9d56f13a99f5ee9b95f6e5b5a8a571e940dea3f7906235760001b613e38565b6000600182610c0a9190615ac3565b9050610c387f542d85df89b2ffc544c3a5114b3f8c492e2bb41ab931e0e11b5bd2c5ab386afd60001b613e38565b610c647f67d5f4640e2f11402e06af5b652a52440800e35486527231e6b1fba7bb94542960001b613e38565b6000600c60008381526020019081526020016000209050610ca77f3c4a8d1b90218a67e674f4297d63389dd9a1d9a28ef225b087bf7765a95d3ad660001b613e38565b610cd37fc4e27b0b701893b273f8befa1b7287610365ee56b0a4d9221ef6ff8877a914d460001b613e38565b806040518060e0016040529081600082015481526020016001820160009054906101000a900473ffffffffffffffffffffffffffffffffffffffff1673ffffffffffffffffffffffffffffffffffffffff1673ffffffffffffffffffffffffffffffffffffffff1681526020016002820160009054906101000a900473ffffffffffffffffffffffffffffffffffffffff1673ffffffffffffffffffffffffffffffffffffffff1673ffffffffffffffffffffffffffffffffffffffff16815260200160038201548152602001600482018054610daf90615c34565b80601f0160208091040260200160405190810160405280929190818152602001828054610ddb90615c34565b8015610e285780601f10610dfd57610100808354040283529160200191610e28565b820191906000526020600020905b815481529060010190602001808311610e0b57829003601f168201915b50505050508152602001600582015481526020016006820160009054906101000a900460ff161515151581525050848681518110610e8f577f4e487b7100000000000000000000000000000000000000000000000000000000600052603260045260246000fd5b6020026020010181905250610ec67ffb0e0f1c62aa5d9ecf31481eb741d86185df218475d2d10740606584f4f255a160001b613e38565b610ef27fe7d4bc091ae97df946014b05b431ce4e28f2f3217cee5e7e8d26d1e4a653ab5360001b613e38565b600185610eff9190615ac3565b94505050610f35565b610f347fe5fb89241b46ebec0154543e4b4bada0320d64a646e3731ee5990e1ee305300960001b613e38565b5b8080610f4090615c97565b915050610aa1565b50610f757f588b50e1a1dc5dde76b1a29a3a3a63336a1cdce7c5527dd1da5353b1aa3d7ba160001b613e38565b610fa17fad2e3abd403b0214cfb7de0a013cc4d3f0895254ac1661820e52002d5dd05e8d60001b613e38565b8094505050505090565b610fb3613d77565b73ffffffffffffffffffffffffffffffffffffffff16610fd161298d565b73ffffffffffffffffffffffffffffffffffffffff1614611027576040517f08c379a000000000000000000000000000000000000000000000000000000000815260040161101e906158f4565b60405180910390fd5b6110537f04ce12e3dae203d860d9a118cc157bcba6f611a9db2740ece77dfcd7198faf7d60001b613e38565b61107f7ff5025847440e35d01d011fe1f71deb7ab5b7fb7c7eff9b6ee29bdf37d6ffd39e60001b613e38565b6110ab7faa3960bab6fbfbb3804c50ee247f535c323a89453af9aeb17086e35a5a0868af60001b613e38565b80600b60006101000a81548173ffffffffffffffffffffffffffffffffffffffff021916908373ffffffffffffffffffffffffffffffffffffffff16021790555050565b606061111d7f5e23119534ad5da9d31a14abd8b8def203ab68f18a416d8273043b5886914f5460001b613e38565b6111497fc38c040ebf648fecc326e7463beccc7e6e231e479dea618e0bc30589db0b42c060001b613e38565b6111757f2fc23a143f3f5fe865ab0efbc4fc300ebe1a00798e4034a95d849101b077b6e660001b613e38565b60006111816008613e3b565b90506111af7f7ac897c4741d062813f286ffb1bf663a486c7a2157acdd5817e6556c5a5b5b1960001b613e38565b6111db7fb07f175c10970f959efb3e3e2b5331a78252d65db9c3583a0f081e835afe1d1460001b613e38565b60006112097fcab6edf3b8ab27735290812f3112c33138131e34b56820d8fb52339e090c327660001b613e38565b6112357f59d71336ea04d783a09291ef66b8de4185513348d6d5f1f296b1595a85de6bff60001b613e38565b60006112637f2dfa16d485a56c0cfb122d8f7704f0b485598bc86b27e4a891784af77e8baa5a60001b613e38565b61128f7fa72d862ee32296b6419e2000f746dd7f9d72a508009ce6b6e8109e711020acff60001b613e38565b60005b83811015611440576112c67ff4b51a35ad3914d80c914405cc1dd706a9fb066b1b814be632d12f2455bca5c060001b613e38565b6112f27f3b6ee839e91ec879d380bb0c5fe05dabd1feed76e0bf998948e02b16fd72703060001b613e38565b3373ffffffffffffffffffffffffffffffffffffffff16600c600060018461131a9190615ac3565b815260200190815260200160002060020160009054906101000a900473ffffffffffffffffffffffffffffffffffffffff1673ffffffffffffffffffffffffffffffffffffffff161415611400576113947f161b9a60117bf1c18374ee8329fdaf91f9684ee6195490f9af385a20d2b2e43160001b613e38565b6113c07f8a94772ef736d2967c1c5c4bd52d87f42cd79901ef1aa3ee9d478b49583cad4260001b613e38565b6113ec7f4eab8b884285e10e1b67cd331340a795244ec205234ff89d063adb69c676db0b60001b613e38565b6001836113f99190615ac3565b925061142d565b61142c7f6f6db0652e4af0290d838d84489868447a37e4afdc9bf20e0861ad2287d12f9760001b613e38565b5b808061143890615c97565b915050611292565b5061146d7fe34d636264ae08c0527d0f4076d37d62243310dd5fa1673582369995fbb9ef5160001b613e38565b6114997fbb5b572f5de98a3208895149a3ac7e0ec52822a2bd4d3891ae5ebe910e2377a960001b613e38565b60008267ffffffffffffffff8111156114db577f4e487b7100000000000000000000000000000000000000000000000000000000600052604160045260246000fd5b60405190808252806020026020018201604052801561151457816020015b611501614ab0565b8152602001906001900390816114f95790505b5090506115437ff6ff65e87c3c2902b9a6ab78e635ca7e2e845a228305e3d25622e1b054745ace60001b613e38565b61156f7f72934bbd4bee6c0e1b76f1e0d9da273a3c33f72eb916b21b320ddf9ff2f3549260001b613e38565b60005b84811015611a19576115a67fc0de671ac99c6b0f532444c78c97082540e645b8bd96aa023fd88d127df5d0ee60001b613e38565b6115d27f4e4a20f16297226e3e53c7b02a71c45c4faad236ca39c91cb4857c3f89ce176960001b613e38565b3373ffffffffffffffffffffffffffffffffffffffff16600c60006001846115fa9190615ac3565b815260200190815260200160002060020160009054906101000a900473ffffffffffffffffffffffffffffffffffffffff1673ffffffffffffffffffffffffffffffffffffffff1614156119d9576116747ff15607a1bbb2938108d6b6cc55c8934c687f49c9f4a4ab34771884335b2b4b9a60001b613e38565b6116a07f0679df9f037601c46c367d96216807d8f7e3aae5e9942c51a92360745eaf81cb60001b613e38565b6116cc7fabbe9618c077f527541eb86d26e03425699c043850b0142e9ef364faecee5bef60001b613e38565b60006001826116db9190615ac3565b90506117097f337723d14f3a7da2d1dbddbd1110dd1133af2b112695602daae876251e6011af60001b613e38565b6117357fbe372fab37eb92418902f7bb01a7a4a75f493913c7e1ef234cf417215accab0c60001b613e38565b6000600c600083815260200190815260200160002090506117787f47b6ceb5f93268b28e9bf2d9f4564e7e5c80a69dd9f3377d2f6aad87cb82f17f60001b613e38565b6117a47ffde59aa7079d130497f46907f669b370728876ce98eca7f55c99dc0e031d217360001b613e38565b806040518060e0016040529081600082015481526020016001820160009054906101000a900473ffffffffffffffffffffffffffffffffffffffff1673ffffffffffffffffffffffffffffffffffffffff1673ffffffffffffffffffffffffffffffffffffffff1681526020016002820160009054906101000a900473ffffffffffffffffffffffffffffffffffffffff1673ffffffffffffffffffffffffffffffffffffffff1673ffffffffffffffffffffffffffffffffffffffff1681526020016003820154815260200160048201805461188090615c34565b80601f01602080910402602001604051908101604052809291908181526020018280546118ac90615c34565b80156118f95780601f106118ce576101008083540402835291602001916118f9565b820191906000526020600020905b8154815290600101906020018083116118dc57829003601f168201915b50505050508152602001600582015481526020016006820160009054906101000a900460ff161515151581525050848681518110611960577f4e487b7100000000000000000000000000000000000000000000000000000000600052603260045260246000fd5b60200260200101819052506119977ffc7d9418ef6104e7c132f0b48d09cbcbc9d29a8eb2f64a1c40fd98c81752c53360001b613e38565b6119c37f93438cc8fd4df809906cd0944ed9723f2a6524fa11b24c98490621a87e2a7adf60001b613e38565b6001856119d09190615ac3565b94505050611a06565b611a057f53daab3e88988a6100e331c845fbcf54c220d1912761a43bc858d3c3b948276560001b613e38565b5b8080611a1190615c97565b915050611572565b50611a467ffa16083417671f27764e152c3daf061788a1f4adfc8ed126e444ad025946bd6760001b613e38565b611a727f8c68c44732be200003e187717062efdc494d1ff57dace08d609df0bc782c0b9c60001b613e38565b8094505050505090565b611a8d611a87613d77565b82613e49565b611acc576040517f08c379a0000000000000000000000000000000000000000000000000000000008152600401611ac390615954565b60405180910390fd5b611ad7838383613f27565b505050565b611b087f81aea1c45b70d33b69501a2028757415c4160b877f6097f28d573e5153c9a10b60001b613e38565b611b347f600ad4fe896d79d9af76041ea5452d57759ed9da309f35f811cbe48acb8f35fd60001b613e38565b611b607f291359c2d01c06bae179597f50fcb62edd2f11a81054c6e66d318bee65c1b02060001b613e38565b6040518060e001604052808681526020013373ffffffffffffffffffffffffffffffffffffffff1681526020013073ffffffffffffffffffffffffffffffffffffffff16815260200184815260200183815260200185815260200160001515815250600c60008781526020019081526020016000206000820151816000015560208201518160010160006101000a81548173ffffffffffffffffffffffffffffffffffffffff021916908373ffffffffffffffffffffffffffffffffffffffff16021790555060408201518160020160006101000a81548173ffffffffffffffffffffffffffffffffffffffff021916908373ffffffffffffffffffffffffffffffffffffffff160217905550606082015181600301556080820151816004019080519060200190611c93929190614b1b565b5060a0820151816005015560c08201518160060160006101000a81548160ff021916908315150217905550905050611ced7ff99610d3897c676e9bbb7db4683a4a8b22d9603b342c065806718a27ff025b1060001b613e38565b611d197fff42617a40da9ae95023905adb8b9b04335bdefeb066a2714211cf5d9877a0d960001b613e38565b611d24333087613f27565b611d507f545b28bd450965b3288628353f288f4b10afce97a7a1c1d6a5abf60702fece8c60001b613e38565b611d7c7ff18fe4ddff2a609b2010507dfe1f70b128d94be681d1ce8324cd07ea87db598160001b613e38565b847fe7869a2a52c85bc7f7e6fbf174b4186dc73dc781546e02ebf24e1fe70609fa5133308686868a6000604051611db99796959493929190615658565b60405180910390a25050505050565b611de383838360405180602001604052806000815250612a85565b505050565b6060611e167f8749dcf311a3a124bae751ca6b1875864a1a28333641173449e7de65c80fa50160001b613e38565b611e427f54d91b6fcca81f101b552136c5d0e7eff63a5476b3e25f0058f4a618ac9760c360001b613e38565b611e6e7fecc211f0137701809be26505553d69dacf88c57aa2fe2b22b95c1a2ad62038dd60001b613e38565b6000611e7a6008613e3b565b9050611ea87fd15d691a2c0bad6f19e1db233a5e45d525f37390bb3757cf1ed9de1b690953cd60001b613e38565b611ed47f6e97e9c2e26aae3a212b49256617951de5d35fc6da21148b9904dc40ed12db2760001b613e38565b6000611f027f34b3cc91eec4cc86dc01d10ca3db71998bb16bbcfdb31f8c13ad7f3712b10e4860001b613e38565b611f2e7fa9f96ae937fb709eb4c24af01b56e88978dd7c4472036569b4970e74cc99e9e660001b613e38565b6000611f5c7f243e0c59af6296a8ade76b72cef08ec0842e077db2078740484b6e42ca756ee260001b613e38565b611f887f523fa0f9f929d35271b670896fa877d117912fa684b793900fa28b92f5f585a360001b613e38565b60005b8381101561213957611fbf7fddc7262f5bbde64e4b2d8d735ae9fb8e31d5037ab54d4e94b0ab4bf5a708c97560001b613e38565b611feb7f52c44a7f01d8396836fab3c2d751f52bb4cedeb25266b593882b112df22dbb7060001b613e38565b3373ffffffffffffffffffffffffffffffffffffffff16600c60006001846120139190615ac3565b815260200190815260200160002060010160009054906101000a900473ffffffffffffffffffffffffffffffffffffffff1673ffffffffffffffffffffffffffffffffffffffff1614156120f95761208d7f029060137ce66cdd2c87dce702ea517aae51d93cf37510f3720907761102e1c560001b613e38565b6120b97f705dde27f2e5fd0e4c4a603bc8d16e5893175460cbc63d2893a9da422962148760001b613e38565b6120e57f3e49bda2595b09e22ecc2038da60602073ed8e3c458f570d047a77f866e701e560001b613e38565b6001836120f29190615ac3565b9250612126565b6121257f21aae2ce8b4c84d7675ecc0e5de3be2fe28bb8124dd658e6727de3595c524c1360001b613e38565b5b808061213190615c97565b915050611f8b565b506121667f5832fdef4d851e2d8c63b379725123fb68f210dbca3e8ebaa48238bd00063c9b60001b613e38565b6121927f3a526b85642a3ff5916ecd2c9aceda521f7a4f61b8cc64d912f1b5aaf8f3140860001b613e38565b60008267ffffffffffffffff8111156121d4577f4e487b7100000000000000000000000000000000000000000000000000000000600052604160045260246000fd5b60405190808252806020026020018201604052801561220d57816020015b6121fa614ab0565b8152602001906001900390816121f25790505b50905061223c7f482f382df9d0240875b5e47f0616f44064954130e1b43aadfe26f3d43a1fc76560001b613e38565b6122687f234729415f80f00e64c9ce18cdd0d4ff79ad6ff9aa4db833890934b4b47bfd5d60001b613e38565b60005b848110156127125761229f7ffafe3af93efc5acb40d0633015a2a649bb1343f29e3fefe695960104198315a260001b613e38565b6122cb7f07ed679cb7928084ed565f25da0413e5081d3d8923b2beae4ec1c11d58593d1e60001b613e38565b3373ffffffffffffffffffffffffffffffffffffffff16600c60006001846122f39190615ac3565b815260200190815260200160002060010160009054906101000a900473ffffffffffffffffffffffffffffffffffffffff1673ffffffffffffffffffffffffffffffffffffffff1614156126d25761236d7fdc6fe1e0a272b73363db717647a12b674884a6815af9c4003b1eed5195e5b7da60001b613e38565b6123997ff7da50c110bc74a52979355d44d8e41493b96b29c771ffd9334441e4cd8625b760001b613e38565b6123c57f504af0a2b363159cea395dd18add00ca3e3e02d4da51e691f1221ce073c4be7160001b613e38565b60006001826123d49190615ac3565b90506124027fa3b542cc559074afe39dfe585181ae6c9d2e0f75e05301bbd4555f066b1b9a1a60001b613e38565b61242e7f80c462dc1d5f49f30afcd49e2d68b9e75ba226dc7f62da360627d2ee07cd02cc60001b613e38565b6000600c600083815260200190815260200160002090506124717f609999f3e6bedfd7fd341241124722946ac8f9014763ae7c01f4e15dee2be23460001b613e38565b61249d7ff88ff10bd020e119bdc44bf2def98397ca8349b81ee047761d85ba8842e1704860001b613e38565b806040518060e0016040529081600082015481526020016001820160009054906101000a900473ffffffffffffffffffffffffffffffffffffffff1673ffffffffffffffffffffffffffffffffffffffff1673ffffffffffffffffffffffffffffffffffffffff1681526020016002820160009054906101000a900473ffffffffffffffffffffffffffffffffffffffff1673ffffffffffffffffffffffffffffffffffffffff1673ffffffffffffffffffffffffffffffffffffffff1681526020016003820154815260200160048201805461257990615c34565b80601f01602080910402602001604051908101604052809291908181526020018280546125a590615c34565b80156125f25780601f106125c7576101008083540402835291602001916125f2565b820191906000526020600020905b8154815290600101906020018083116125d557829003601f168201915b50505050508152602001600582015481526020016006820160009054906101000a900460ff161515151581525050848681518110612659577f4e487b7100000000000000000000000000000000000000000000000000000000600052603260045260246000fd5b60200260200101819052506126907ffa24d1455f6ab5ec63d01229787ca1070da284b09f6e017fc42e25ce809e43c660001b613e38565b6126bc7f976ea887b447398342dd7c1cac7cf7562ad98aab9316fa6dcb4fb39b88ef1fef60001b613e38565b6001856126c99190615ac3565b945050506126ff565b6126fe7f9d4636c37619ee9b676727b0af8caa8bcea0385528b6417e7c04950c5730a3c560001b613e38565b5b808061270a90615c97565b91505061226b565b5061273f7f9062c99eba3c6d24a7b97f53cf9b294af74aeb456430e6c46e0e3d30222d943660001b613e38565b61276b7fe931c1b3cdb71d9759d1b727da7fbaba76989abaaa0f369a3acf8b5a1844a16e60001b613e38565b8094505050505090565b6000806002600084815260200190815260200160002060009054906101000a900473ffffffffffffffffffffffffffffffffffffffff169050600073ffffffffffffffffffffffffffffffffffffffff168173ffffffffffffffffffffffffffffffffffffffff16141561281e576040517f08c379a000000000000000000000000000000000000000000000000000000000815260040161281590615854565b60405180910390fd5b80915050919050565b60008073ffffffffffffffffffffffffffffffffffffffff168273ffffffffffffffffffffffffffffffffffffffff161415612898576040517f08c379a000000000000000000000000000000000000000000000000000000000815260040161288f90615834565b60405180910390fd5b600360008373ffffffffffffffffffffffffffffffffffffffff1673ffffffffffffffffffffffffffffffffffffffff168152602001908152602001600020549050919050565b6128e7613d77565b73ffffffffffffffffffffffffffffffffffffffff1661290561298d565b73ffffffffffffffffffffffffffffffffffffffff161461295b576040517f08c379a0000000000000000000000000000000000000000000000000000000008152600401612952906158f4565b60405180910390fd5b612965600061418e565b565b600b60009054906101000a900473ffffffffffffffffffffffffffffffffffffffff1681565b6000600760009054906101000a900473ffffffffffffffffffffffffffffffffffffffff16905090565b6060600180546129c690615c34565b80601f01602080910402602001604051908101604052809291908181526020018280546129f290615c34565b8015612a3f5780601f10612a1457610100808354040283529160200191612a3f565b820191906000526020600020905b815481529060010190602001808311612a2257829003601f168201915b5050505050905090565b600a60009054906101000a900473ffffffffffffffffffffffffffffffffffffffff1681565b612a81612a7a613d77565b8383614254565b5050565b612a96612a90613d77565b83613e49565b612ad5576040517f08c379a0000000000000000000000000000000000000000000000000000000008152600401612acc90615954565b60405180910390fd5b612ae1848484846143c1565b50505050565b6000612b157faba32158f9b522c38b50e9c5f863c28492234ef3a06f51e1c768d1d0ae54e27060001b613e38565b612b417f7627676c467e9efd8fd8b7e58c6403a4506c5526c1dd5be0ab8695d97ec4a64b60001b613e38565b612b6d7ffaf1e9a6fdda66003fd807a6fd5240b2b6e60f3d1874bc17af14487bc1533b6560001b613e38565b612b77600861441d565b612ba37f443f332d30d6047926ea59a7e59da221cf18f7ec621379d0265d7a77c7ebe3f960001b613e38565b612bcf7f1588a3af3074100a5e6b934e32c79fab7d7408b657287138d88f2d5144ac377b60001b613e38565b6000612bdb6008613e3b565b9050612c097f26fa7f76dd4a98d59a25458014b76fa00949cc8fc3f67b9651ae5bc04f82174960001b613e38565b612c357fc82ca5ce41fc3b831a636efd8dd71d617e3c92681ef1db86419177ff7a9ab43960001b613e38565b612c3f3382614433565b612c6b7f1d786321c324b279b1ed04cb61931b80dcb72414c5e49d904cec8b90874384ec60001b613e38565b612c977f6b095f5d932a410118557978d2a95060d64d5f9c73d3fa496ead57a14edb852960001b613e38565b612ca1818761460d565b612ccd7f1b35322f209bf763fbe1c6e9908f1076f020eab4eeaeac522f868a55e0215c4760001b613e38565b612cf97f160aee781fc5a89b3f8bac78644397506c607440ff2dcd69cd69fe8bec5178ea60001b613e38565b612d06818686868a611adc565b612d327f04e54bd5307334bab2569ff04a59a63cfa4c01c2e573af5b1e5391634d99efd360001b613e38565b612d5e7fff9a6cb37211c612e23e975d7f2709fa663d7685521f7dd7619df7bedc1bb1ca60001b613e38565b80915050949350505050565b6060612d7582613d0b565b612db4576040517f08c379a0000000000000000000000000000000000000000000000000000000008152600401612dab906158b4565b60405180910390fd5b6000600660008481526020019081526020016000208054612dd490615c34565b80601f0160208091040260200160405190810160405280929190818152602001828054612e0090615c34565b8015612e4d5780601f10612e2257610100808354040283529160200191612e4d565b820191906000526020600020905b815481529060010190602001808311612e3057829003601f168201915b505050505090506000612e5e614681565b9050600081511415612e74578192505050612eb7565b600082511115612ea9578082604051602001612e91929190615596565b60405160208183030381529060405292505050612eb7565b612eb284614698565b925050505b919050565b6060612eea7f33324cddc97e9066a5feda4dbaf3d2b46c640332702481c14016f81f6bce971060001b613e38565b612f167f6a98d293431bbc54405c3888fc35107c3ce262b816ef6317c52b1233245aa40f60001b613e38565b612f427f3358d879dae6dc76ad2e6a73113d6bdd1682855c2be4eef1ff246dbec1bdf86860001b613e38565b6000612f4e6008613e3b565b9050612f7c7fdd8810d83b697c59bcbd162ab18db30879dab9e7277e7654c52d8ebafee9a6c560001b613e38565b612fa87f97230c11e2ef6c397a5c60114ef3349a73e06355cd067e163371d844d1c2872460001b613e38565b6000612fd67f165360618d889016d84c1081f859c7e9b416e35008c096c65c722605eae838d960001b613e38565b6130027fff870cc8407a39b3943edd24e1fa18914c539888613342682e4f80385e06597e60001b613e38565b60008267ffffffffffffffff811115613044577f4e487b7100000000000000000000000000000000000000000000000000000000600052604160045260246000fd5b60405190808252806020026020018201604052801561307d57816020015b61306a614ab0565b8152602001906001900390816130625790505b5090506130ac7f5ad3d2d393bf0848ce668c50dd2f6b976b989a1546a476d8460a2423cacaa77c60001b613e38565b6130d87fdb2c1424703bea93d0cc74c0fbcf8a8ea642d7bb0212fd44293041ead5d5989760001b613e38565b60005b838110156134565761310f7febec478bd18d26440d2894ae521d83979623ce20d64d6bd24fb909f07fb4f2d460001b613e38565b61313b7fa8a4124a82fe93100003c53e8b1d03d09cd8b317d5bc318c66f60298e86eaf2560001b613e38565b600060018261314a9190615ac3565b90506131787f901929859bc392fa0444682b50acc71abfe770673f3bb0b34c5df21322babd0b60001b613e38565b6131a47ff849ae41654327f8e6bf6a9cd4f896c55e360bbe378e4a211c9d4d4ca68c2c9560001b613e38565b6000600c600083815260200190815260200160002090506131e77f712ac014f99a8d0901d901b8646a62117dc667d61aa504275f6e8ca85f78b07360001b613e38565b6132137f984fdf0c833babb16f2a9a01fe2bb3ca4605420a0c59e97ab2615a65425a02e160001b613e38565b806040518060e0016040529081600082015481526020016001820160009054906101000a900473ffffffffffffffffffffffffffffffffffffffff1673ffffffffffffffffffffffffffffffffffffffff1673ffffffffffffffffffffffffffffffffffffffff1681526020016002820160009054906101000a900473ffffffffffffffffffffffffffffffffffffffff1673ffffffffffffffffffffffffffffffffffffffff1673ffffffffffffffffffffffffffffffffffffffff168152602001600382015481526020016004820180546132ef90615c34565b80601f016020809104026020016040519081016040528092919081815260200182805461331b90615c34565b80156133685780601f1061333d57610100808354040283529160200191613368565b820191906000526020600020905b81548152906001019060200180831161334b57829003601f168201915b50505050508152602001600582015481526020016006820160009054906101000a900460ff1615151515815250508486815181106133cf577f4e487b7100000000000000000000000000000000000000000000000000000000600052603260045260246000fd5b60200260200101819052506134067f0f08a281146562e642c9fa16e3f9252744b515d2edd89cf5a4d098ea474a06b860001b613e38565b6134327ff0f26f85a2d16f8ae69e0346b8f752612666a3ac46454889a6b55be59b55c24e60001b613e38565b60018561343f9190615ac3565b94505050808061344e90615c97565b9150506130db565b506134837f21ec1c053bb1ae471586c99ca01cb611bdafa50a0835bc9ca3fe19481024080f60001b613e38565b6134af7fe9ee30403a0a7bf4919a42ec84d86c874d9ec373a63581c28f40f402cbd9683460001b613e38565b80935050505090565b6000600560008473ffffffffffffffffffffffffffffffffffffffff1673ffffffffffffffffffffffffffffffffffffffff16815260200190815260200160002060008373ffffffffffffffffffffffffffffffffffffffff1673ffffffffffffffffffffffffffffffffffffffff16815260200190815260200160002060009054906101000a900460ff16905092915050565b613554613d77565b73ffffffffffffffffffffffffffffffffffffffff1661357261298d565b73ffffffffffffffffffffffffffffffffffffffff16146135c8576040517f08c379a00000000000000000000000000000000000000000000000000000000081526004016135bf906158f4565b60405180910390fd5b6135f47f0b5d0638e8ba868dee9317f7339a6318a8fafda02f7f93ecfb1226cb2b48d54f60001b613e38565b6136207f11044e0c10c8ec3fde58295139adc347c245e78c6dc94b4f218e02d2728634b360001b613e38565b61364c7fbc78949d5441b23ffa06a843462d6f4e691b276c17b2bb47098553d6f4b2af6560001b613e38565b6136787fa7d56e9430371b10cc31578a6d30de0b3e19b4dce5b9830c2b4f285d2341477460001b613e38565b600073ffffffffffffffffffffffffffffffffffffffff16600b60009054906101000a900473ffffffffffffffffffffffffffffffffffffffff1673ffffffffffffffffffffffffffffffffffffffff16141561370a576040517f08c379a000000000000000000000000000000000000000000000000000000000815260040161370190615974565b60405180910390fd5b6137367f6f85997aa88e3f5c6df7584a5ceef8fcf08efaae821ea3ad877dad9e4a8638a160001b613e38565b6137627f8383c30ecb29843d45116a2e58d81ac84fb64e4ccce35c9d4bd44b25a17c34a260001b613e38565b61378e7ff68b1b2afc70155ed1a58f649143093ccb14d079b36aa7755f8d02127ae17cba60001b613e38565b600b60009054906101000a900473ffffffffffffffffffffffffffffffffffffffff1673ffffffffffffffffffffffffffffffffffffffff16631501bf0383600c600087815260200190815260200160002060010160009054906101000a900473ffffffffffffffffffffffffffffffffffffffff16846040518463ffffffff1660e01b8152600401613823939291906155d5565b600060405180830381600087803b15801561383d57600080fd5b505af1158015613851573d6000803e3d6000fd5b505050506138817fab95b72ae9d49ee4988636a81bbd893d1ecb6038e55fd80938f78f80c330732460001b613e38565b6138ad7fe348d58c1c6e3a5307933eebf14dd6ee28648857cc2612dbbe7010b52e8534d760001b613e38565b600c600084815260200190815260200160002060020160009054906101000a900473ffffffffffffffffffffffffffffffffffffffff16600c600085815260200190815260200160002060010160006101000a81548173ffffffffffffffffffffffffffffffffffffffff021916908373ffffffffffffffffffffffffffffffffffffffff1602179055506139647f1e33c59f631e8667b9927ef22bb8be5e50eb6524c3e86658dfe27ceea035f73360001b613e38565b6139907f147dea2bc6a9df4fed92ede6cb48f087efb9f4dce0a8dae0cb5af738a99018dd60001b613e38565b80600c6000858152602001908152602001600020600501819055506139d77f8972f0888d99bee0460ca81d4e1169191569f36d6522149f78063f3df7c1f6db60001b613e38565b613a037f5cd8a13f0e25c43b5c5a1997b959bda14c32bdec560ccdfca8ab66828c30175860001b613e38565b81600c600085815260200190815260200160002060020160006101000a81548173ffffffffffffffffffffffffffffffffffffffff021916908373ffffffffffffffffffffffffffffffffffffffff160217905550613a847f08a4c846505d215a601bff24fa2465ca82b60a508cafc534a190f4e2ce49020960001b613e38565b613ab07ff0172633095af2395e9fa00445ac0be5465a389e5ec2acfb98e6ebe18d7d56be60001b613e38565b6001600c600085815260200190815260200160002060060160006101000a81548160ff021916908315150217905550613b0b7f8f532bf1e73bb8cdf62fa2e2c0917785cad92976086fe3393c97c6de93351a6460001b613e38565b613b377f46376dd8c6723bcc0fcc397aa0b86356de8abcf2402d7cda1f89cf982b747c2c60001b613e38565b613b41600961441d565b613b6d7fdff87fd02db8e5bf56de3b99fbd92631d0f6cb645f54700f059584a77ae8228d60001b613e38565b613b997f1676234425f72b746af124ec1902f0883c629b1e1e638eb52e80a9eb336c8ae360001b613e38565b613ba4308385613f27565b505050565b613bb1613d77565b73ffffffffffffffffffffffffffffffffffffffff16613bcf61298d565b73ffffffffffffffffffffffffffffffffffffffff1614613c25576040517f08c379a0000000000000000000000000000000000000000000000000000000008152600401613c1c906158f4565b60405180910390fd5b600073ffffffffffffffffffffffffffffffffffffffff168173ffffffffffffffffffffffffffffffffffffffff161415613c95576040517f08c379a0000000000000000000000000000000000000000000000000000000008152600401613c8c90615754565b60405180910390fd5b613c9e8161418e565b50565b60007f01ffc9a7000000000000000000000000000000000000000000000000000000007bffffffffffffffffffffffffffffffffffffffffffffffffffffffff1916827bffffffffffffffffffffffffffffffffffffffffffffffffffffffff1916149050919050565b60008073ffffffffffffffffffffffffffffffffffffffff166002600084815260200190815260200160002060009054906101000a900473ffffffffffffffffffffffffffffffffffffffff1673ffffffffffffffffffffffffffffffffffffffff1614159050919050565b600033905090565b816004600083815260200190815260200160002060006101000a81548173ffffffffffffffffffffffffffffffffffffffff021916908373ffffffffffffffffffffffffffffffffffffffff160217905550808273ffffffffffffffffffffffffffffffffffffffff16613df283612775565b73ffffffffffffffffffffffffffffffffffffffff167f8c5be1e5ebec7d5bd14f71427d1e84f3dd0314c0f7b2291e5b200ac8c7c3b92560405160405180910390a45050565b50565b600081600001549050919050565b6000613e5482613d0b565b613e93576040517f08c379a0000000000000000000000000000000000000000000000000000000008152600401613e8a906157f4565b60405180910390fd5b6000613e9e83612775565b90508073ffffffffffffffffffffffffffffffffffffffff168473ffffffffffffffffffffffffffffffffffffffff161480613f0d57508373ffffffffffffffffffffffffffffffffffffffff16613ef58461066b565b73ffffffffffffffffffffffffffffffffffffffff16145b80613f1e5750613f1d81856134b8565b5b91505092915050565b8273ffffffffffffffffffffffffffffffffffffffff16613f4782612775565b73ffffffffffffffffffffffffffffffffffffffff1614613f9d576040517f08c379a0000000000000000000000000000000000000000000000000000000008152600401613f9490615774565b60405180910390fd5b600073ffffffffffffffffffffffffffffffffffffffff168273ffffffffffffffffffffffffffffffffffffffff16141561400d576040517f08c379a0000000000000000000000000000000000000000000000000000000008152600401614004906157b4565b60405180910390fd5b61401883838361473f565b614023600082613d7f565b6001600360008573ffffffffffffffffffffffffffffffffffffffff1673ffffffffffffffffffffffffffffffffffffffff16815260200190815260200160002060008282546140739190615b4a565b925050819055506001600360008473ffffffffffffffffffffffffffffffffffffffff1673ffffffffffffffffffffffffffffffffffffffff16815260200190815260200160002060008282546140ca9190615ac3565b92505081905550816002600083815260200190815260200160002060006101000a81548173ffffffffffffffffffffffffffffffffffffffff021916908373ffffffffffffffffffffffffffffffffffffffff160217905550808273ffffffffffffffffffffffffffffffffffffffff168473ffffffffffffffffffffffffffffffffffffffff167fddf252ad1be2c89b69c2b068fc378daa952ba7f163c4a11628f55a4df523b3ef60405160405180910390a4614189838383614744565b505050565b6000600760009054906101000a900473ffffffffffffffffffffffffffffffffffffffff16905081600760006101000a81548173ffffffffffffffffffffffffffffffffffffffff021916908373ffffffffffffffffffffffffffffffffffffffff1602179055508173ffffffffffffffffffffffffffffffffffffffff168173ffffffffffffffffffffffffffffffffffffffff167f8be0079c531659141344cd1fd0a4f28419497f9722a3daafe3b4186f6b6457e060405160405180910390a35050565b8173ffffffffffffffffffffffffffffffffffffffff168373ffffffffffffffffffffffffffffffffffffffff1614156142c3576040517f08c379a00000000000000000000000000000000000000000000000000000000081526004016142ba906157d4565b60405180910390fd5b80600560008573ffffffffffffffffffffffffffffffffffffffff1673ffffffffffffffffffffffffffffffffffffffff16815260200190815260200160002060008473ffffffffffffffffffffffffffffffffffffffff1673ffffffffffffffffffffffffffffffffffffffff16815260200190815260200160002060006101000a81548160ff0219169083151502179055508173ffffffffffffffffffffffffffffffffffffffff168373ffffffffffffffffffffffffffffffffffffffff167f17307eab39ab6107e8899845ad3d59bd9653f200f220920489ca2b5937696c31836040516143b491906156f7565b60405180910390a3505050565b6143cc848484613f27565b6143d884848484614749565b614417576040517f08c379a000000000000000000000000000000000000000000000000000000000815260040161440e90615734565b60405180910390fd5b50505050565b6001816000016000828254019250508190555050565b600073ffffffffffffffffffffffffffffffffffffffff168273ffffffffffffffffffffffffffffffffffffffff1614156144a3576040517f08c379a000000000000000000000000000000000000000000000000000000000815260040161449a90615894565b60405180910390fd5b6144ac81613d0b565b156144ec576040517f08c379a00000000000000000000000000000000000000000000000000000000081526004016144e390615794565b60405180910390fd5b6144f86000838361473f565b6001600360008473ffffffffffffffffffffffffffffffffffffffff1673ffffffffffffffffffffffffffffffffffffffff16815260200190815260200160002060008282546145489190615ac3565b92505081905550816002600083815260200190815260200160002060006101000a81548173ffffffffffffffffffffffffffffffffffffffff021916908373ffffffffffffffffffffffffffffffffffffffff160217905550808273ffffffffffffffffffffffffffffffffffffffff16600073ffffffffffffffffffffffffffffffffffffffff167fddf252ad1be2c89b69c2b068fc378daa952ba7f163c4a11628f55a4df523b3ef60405160405180910390a461460960008383614744565b5050565b61461682613d0b565b614655576040517f08c379a000000000000000000000000000000000000000000000000000000000815260040161464c90615874565b60405180910390fd5b8060066000848152602001908152602001600020908051906020019061467c929190614b1b565b505050565b606060405180602001604052806000815250905090565b60606146a382613d0b565b6146e2576040517f08c379a00000000000000000000000000000000000000000000000000000000081526004016146d990615914565b60405180910390fd5b60006146ec614681565b9050600081511161470c5760405180602001604052806000815250614737565b80614716846148e0565b604051602001614727929190615596565b6040516020818303038152906040525b915050919050565b505050565b505050565b600061476a8473ffffffffffffffffffffffffffffffffffffffff16614a8d565b156148d3578373ffffffffffffffffffffffffffffffffffffffff1663150b7a02614793613d77565b8786866040518563ffffffff1660e01b81526004016147b5949392919061560c565b602060405180830381600087803b1580156147cf57600080fd5b505af192505050801561480057506040513d601f19601f820116820180604052508101906147fd9190614ec7565b60015b614883573d8060008114614830576040519150601f19603f3d011682016040523d82523d6000602084013e614835565b606091505b5060008151141561487b576040517f08c379a000000000000000000000000000000000000000000000000000000000815260040161487290615734565b60405180910390fd5b805181602001fd5b63150b7a0260e01b7bffffffffffffffffffffffffffffffffffffffffffffffffffffffff1916817bffffffffffffffffffffffffffffffffffffffffffffffffffffffff1916149150506148d8565b600190505b949350505050565b60606000821415614928576040518060400160405280600181526020017f30000000000000000000000000000000000000000000000000000000000000008152509050614a88565b600082905060005b6000821461495a57808061494390615c97565b915050600a826149539190615b19565b9150614930565b60008167ffffffffffffffff81111561499c577f4e487b7100000000000000000000000000000000000000000000000000000000600052604160045260246000fd5b6040519080825280601f01601f1916602001820160405280156149ce5781602001600182028036833780820191505090505b5090505b60008514614a81576001826149e79190615b4a565b9150600a856149f69190615ce0565b6030614a029190615ac3565b60f81b818381518110614a3e577f4e487b7100000000000000000000000000000000000000000000000000000000600052603260045260246000fd5b60200101907effffffffffffffffffffffffffffffffffffffffffffffffffffffffffffff1916908160001a905350600a85614a7a9190615b19565b94506149d2565b8093505050505b919050565b6000808273ffffffffffffffffffffffffffffffffffffffff163b119050919050565b6040518060e0016040528060008152602001600073ffffffffffffffffffffffffffffffffffffffff168152602001600073ffffffffffffffffffffffffffffffffffffffff1681526020016000815260200160608152602001600081526020016000151581525090565b828054614b2790615c34565b90600052602060002090601f016020900481019282614b495760008555614b90565b82601f10614b6257805160ff1916838001178555614b90565b82800160010185558215614b90579182015b82811115614b8f578251825591602001919060010190614b74565b5b509050614b9d9190614ba1565b5090565b5b80821115614bba576000816000905550600101614ba2565b5090565b6000614bd1614bcc846159d4565b6159af565b905082815260208101848484011115614be957600080fd5b614bf4848285615bf2565b509392505050565b6000614c0f614c0a84615a05565b6159af565b905082815260208101848484011115614c2757600080fd5b614c32848285615bf2565b509392505050565b600081359050614c4981616323565b92915050565b600081359050614c5e8161633a565b92915050565b600081359050614c7381616351565b92915050565b600081519050614c8881616351565b92915050565b600082601f830112614c9f57600080fd5b8135614caf848260208601614bbe565b91505092915050565b600082601f830112614cc957600080fd5b8135614cd9848260208601614bfc565b91505092915050565b600081359050614cf181616368565b92915050565b600060208284031215614d0957600080fd5b6000614d1784828501614c3a565b91505092915050565b60008060408385031215614d3357600080fd5b6000614d4185828601614c3a565b9250506020614d5285828601614c3a565b9150509250929050565b600080600060608486031215614d7157600080fd5b6000614d7f86828701614c3a565b9350506020614d9086828701614c3a565b9250506040614da186828701614ce2565b9150509250925092565b60008060008060808587031215614dc157600080fd5b6000614dcf87828801614c3a565b9450506020614de087828801614c3a565b9350506040614df187828801614ce2565b925050606085013567ffffffffffffffff811115614e0e57600080fd5b614e1a87828801614c8e565b91505092959194509250565b60008060408385031215614e3957600080fd5b6000614e4785828601614c3a565b9250506020614e5885828601614c4f565b9150509250929050565b60008060408385031215614e7557600080fd5b6000614e8385828601614c3a565b9250506020614e9485828601614ce2565b9150509250929050565b600060208284031215614eb057600080fd5b6000614ebe84828501614c64565b91505092915050565b600060208284031215614ed957600080fd5b6000614ee784828501614c79565b91505092915050565b60008060008060808587031215614f0657600080fd5b600085013567ffffffffffffffff811115614f2057600080fd5b614f2c87828801614cb8565b9450506020614f3d87828801614ce2565b9350506040614f4e87828801614ce2565b925050606085013567ffffffffffffffff811115614f6b57600080fd5b614f7787828801614cb8565b91505092959194509250565b600060208284031215614f9557600080fd5b6000614fa384828501614ce2565b91505092915050565b600080600060608486031215614fc157600080fd5b6000614fcf86828701614ce2565b9350506020614fe086828701614c3a565b9250506040614ff186828701614ce2565b9150509250925092565b600080600080600060a0868803121561501357600080fd5b600061502188828901614ce2565b955050602061503288828901614ce2565b945050604061504388828901614ce2565b935050606086013567ffffffffffffffff81111561506057600080fd5b61506c88828901614cb8565b925050608086013567ffffffffffffffff81111561508957600080fd5b61509588828901614cb8565b9150509295509295909350565b60006150ae83836154dc565b905092915050565b6150bf81615b7e565b82525050565b6150ce81615b7e565b82525050565b60006150df82615a46565b6150e98185615a74565b9350836020820285016150fb85615a36565b8060005b85811015615137578484038952815161511885826150a2565b945061512383615a67565b925060208a019950506001810190506150ff565b50829750879550505050505092915050565b61515281615b90565b82525050565b61516181615b90565b82525050565b600061517282615a51565b61517c8185615a85565b935061518c818560208601615c01565b61519581615dcd565b840191505092915050565b60006151ab82615a5c565b6151b58185615a96565b93506151c5818560208601615c01565b6151ce81615dcd565b840191505092915050565b60006151e482615a5c565b6151ee8185615aa7565b93506151fe818560208601615c01565b61520781615dcd565b840191505092915050565b600061521d82615a5c565b6152278185615ab8565b9350615237818560208601615c01565b80840191505092915050565b6000615250603283615aa7565b915061525b82615dde565b604082019050919050565b6000615273602683615aa7565b915061527e82615e2d565b604082019050919050565b6000615296602583615aa7565b91506152a182615e7c565b604082019050919050565b60006152b9601c83615aa7565b91506152c482615ecb565b602082019050919050565b60006152dc602483615aa7565b91506152e782615ef4565b604082019050919050565b60006152ff601983615aa7565b915061530a82615f43565b602082019050919050565b6000615322602c83615aa7565b915061532d82615f6c565b604082019050919050565b6000615345603883615aa7565b915061535082615fbb565b604082019050919050565b6000615368602a83615aa7565b91506153738261600a565b604082019050919050565b600061538b602983615aa7565b915061539682616059565b604082019050919050565b60006153ae602e83615aa7565b91506153b9826160a8565b604082019050919050565b60006153d1602083615aa7565b91506153dc826160f7565b602082019050919050565b60006153f4603183615aa7565b91506153ff82616120565b604082019050919050565b6000615417602c83615aa7565b91506154228261616f565b604082019050919050565b600061543a602083615aa7565b9150615445826161be565b602082019050919050565b600061545d602f83615aa7565b9150615468826161e7565b604082019050919050565b6000615480602183615aa7565b915061548b82616236565b604082019050919050565b60006154a3603183615aa7565b91506154ae82616285565b604082019050919050565b60006154c6602683615aa7565b91506154d1826162d4565b604082019050919050565b600060e0830160008301516154f46000860182615578565b50602083015161550760208601826150b6565b50604083015161551a60408601826150b6565b50606083015161552d6060860182615578565b506080830151848203608086015261554582826151a0565b91505060a083015161555a60a0860182615578565b5060c083015161556d60c0860182615149565b508091505092915050565b61558181615be8565b82525050565b61559081615be8565b82525050565b60006155a28285615212565b91506155ae8284615212565b91508190509392505050565b60006020820190506155cf60008301846150c5565b92915050565b60006060820190506155ea60008301866150c5565b6155f760208301856150c5565b6156046040830184615587565b949350505050565b600060808201905061562160008301876150c5565b61562e60208301866150c5565b61563b6040830185615587565b818103606083015261564d8184615167565b905095945050505050565b600060e08201905061566d600083018a6150c5565b61567a60208301896150c5565b6156876040830188615587565b818103606083015261569981876151d9565b905081810360808301526156ad81866151d9565b90506156bc60a0830185615587565b6156c960c0830184615158565b98975050505050505050565b600060208201905081810360008301526156ef81846150d4565b905092915050565b600060208201905061570c6000830184615158565b92915050565b6000602082019050818103600083015261572c81846151d9565b905092915050565b6000602082019050818103600083015261574d81615243565b9050919050565b6000602082019050818103600083015261576d81615266565b9050919050565b6000602082019050818103600083015261578d81615289565b9050919050565b600060208201905081810360008301526157ad816152ac565b9050919050565b600060208201905081810360008301526157cd816152cf565b9050919050565b600060208201905081810360008301526157ed816152f2565b9050919050565b6000602082019050818103600083015261580d81615315565b9050919050565b6000602082019050818103600083015261582d81615338565b9050919050565b6000602082019050818103600083015261584d8161535b565b9050919050565b6000602082019050818103600083015261586d8161537e565b9050919050565b6000602082019050818103600083015261588d816153a1565b9050919050565b600060208201905081810360008301526158ad816153c4565b9050919050565b600060208201905081810360008301526158cd816153e7565b9050919050565b600060208201905081810360008301526158ed8161540a565b9050919050565b6000602082019050818103600083015261590d8161542d565b9050919050565b6000602082019050818103600083015261592d81615450565b9050919050565b6000602082019050818103600083015261594d81615473565b9050919050565b6000602082019050818103600083015261596d81615496565b9050919050565b6000602082019050818103600083015261598d816154b9565b9050919050565b60006020820190506159a96000830184615587565b92915050565b60006159b96159ca565b90506159c58282615c66565b919050565b6000604051905090565b600067ffffffffffffffff8211156159ef576159ee615d9e565b5b6159f882615dcd565b9050602081019050919050565b600067ffffffffffffffff821115615a2057615a1f615d9e565b5b615a2982615dcd565b9050602081019050919050565b6000819050602082019050919050565b600081519050919050565b600081519050919050565b600081519050919050565b6000602082019050919050565b600082825260208201905092915050565b600082825260208201905092915050565b600082825260208201905092915050565b600082825260208201905092915050565b600081905092915050565b6000615ace82615be8565b9150615ad983615be8565b9250827fffffffffffffffffffffffffffffffffffffffffffffffffffffffffffffffff03821115615b0e57615b0d615d11565b5b828201905092915050565b6000615b2482615be8565b9150615b2f83615be8565b925082615b3f57615b3e615d40565b5b828204905092915050565b6000615b5582615be8565b9150615b6083615be8565b925082821015615b7357615b72615d11565b5b828203905092915050565b6000615b8982615bc8565b9050919050565b60008115159050919050565b60007fffffffff0000000000000000000000000000000000000000000000000000000082169050919050565b600073ffffffffffffffffffffffffffffffffffffffff82169050919050565b6000819050919050565b82818337600083830152505050565b60005b83811015615c1f578082015181840152602081019050615c04565b83811115615c2e576000848401525b50505050565b60006002820490506001821680615c4c57607f821691505b60208210811415615c6057615c5f615d6f565b5b50919050565b615c6f82615dcd565b810181811067ffffffffffffffff82111715615c8e57615c8d615d9e565b5b80604052505050565b6000615ca282615be8565b91507fffffffffffffffffffffffffffffffffffffffffffffffffffffffffffffffff821415615cd557615cd4615d11565b5b600182019050919050565b6000615ceb82615be8565b9150615cf683615be8565b925082615d0657615d05615d40565b5b828206905092915050565b7f4e487b7100000000000000000000000000000000000000000000000000000000600052601160045260246000fd5b7f4e487b7100000000000000000000000000000000000000000000000000000000600052601260045260246000fd5b7f4e487b7100000000000000000000000000000000000000000000000000000000600052602260045260246000fd5b7f4e487b7100000000000000000000000000000000000000000000000000000000600052604160045260246000fd5b6000601f19601f8301169050919050565b7f4552433732313a207472616e7366657220746f206e6f6e20455243373231526560008201527f63656976657220696d706c656d656e7465720000000000000000000000000000602082015250565b7f4f776e61626c653a206e6577206f776e657220697320746865207a65726f206160008201527f6464726573730000000000000000000000000000000000000000000000000000602082015250565b7f4552433732313a207472616e736665722066726f6d20696e636f72726563742060008201527f6f776e6572000000000000000000000000000000000000000000000000000000602082015250565b7f4552433732313a20746f6b656e20616c7265616479206d696e74656400000000600082015250565b7f4552433732313a207472616e7366657220746f20746865207a65726f2061646460008201527f7265737300000000000000000000000000000000000000000000000000000000602082015250565b7f4552433732313a20617070726f766520746f2063616c6c657200000000000000600082015250565b7f4552433732313a206f70657261746f7220717565727920666f72206e6f6e657860008201527f697374656e7420746f6b656e0000000000000000000000000000000000000000602082015250565b7f4552433732313a20617070726f76652063616c6c6572206973206e6f74206f7760008201527f6e6572206e6f7220617070726f76656420666f7220616c6c0000000000000000602082015250565b7f4552433732313a2062616c616e636520717565727920666f7220746865207a6560008201527f726f206164647265737300000000000000000000000000000000000000000000602082015250565b7f4552433732313a206f776e657220717565727920666f72206e6f6e657869737460008201527f656e7420746f6b656e0000000000000000000000000000000000000000000000602082015250565b7f45524337323155524953746f726167653a2055524920736574206f66206e6f6e60008201527f6578697374656e7420746f6b656e000000000000000000000000000000000000602082015250565b7f4552433732313a206d696e7420746f20746865207a65726f2061646472657373600082015250565b7f45524337323155524953746f726167653a2055524920717565727920666f722060008201527f6e6f6e6578697374656e7420746f6b656e000000000000000000000000000000602082015250565b7f4552433732313a20617070726f76656420717565727920666f72206e6f6e657860008201527f697374656e7420746f6b656e0000000000000000000000000000000000000000602082015250565b7f4f776e61626c653a2063616c6c6572206973206e6f7420746865206f776e6572600082015250565b7f4552433732314d657461646174613a2055524920717565727920666f72206e6f60008201527f6e6578697374656e7420746f6b656e0000000000000000000000000000000000602082015250565b7f4552433732313a20617070726f76616c20746f2063757272656e74206f776e6560008201527f7200000000000000000000000000000000000000000000000000000000000000602082015250565b7f4552433732313a207472616e736665722063616c6c6572206973206e6f74206f60008201527f776e6572206e6f7220617070726f766564000000000000000000000000000000602082015250565b7f4e46544d61726b6574706c6163653a20446573706f736974205661756c74206960008201527f73206e756c6c0000000000000000000000000000000000000000000000000000602082015250565b61632c81615b7e565b811461633757600080fd5b50565b61634381615b90565b811461634e57600080fd5b50565b61635a81615b9c565b811461636557600080fd5b50565b61637181615be8565b811461637c57600080fd5b5056fea26469706673582212200860b7fb2d9a24af563602422683b00d1c37d5cc0b29853fea922bd7e62d010264736f6c63430008040033",
  "linkReferences": {},
  "deployedLinkReferences": {}
}